:030000000201C238
:0C01C200787FE4F6D8FD7581090202097F
:0C02A800C2A3C2A48980D2A47F057E00FE
:1002B400D3EF9400EE940040257DC7EDD3940074F1
:1002C40080948040127C01ECD3940074809480402C
:0E02D400031C80F31D80E4EF1F70D51E80D246
:0102E20022F9
:10030F00E4FBC2A2D2A3D2A47F01FE1202B4E58005
:10031F005480648070100BEBD3946474809480408D
:0A032F00EDC2A47F0022C2A47F01EA
:0103390022A1
:02033A00A90711
:10033C00E4FA12030FEF70127F01FE1202B40AEA04
:10034C00D394647480948040E922C2A21202A8C2A1
:01035C00A4FC
:01035D00227D
:02035E00A907ED
:10036000E4FA12030FEF70127F01FE1202B40AEAE0
:10037000D394647480948040E922D2A21202A8C26D
:01038000A4D8
:010381002259
:10000300D290D2917F3012033A7F0C12033A7F01D0
:0300130002033AAB
:1002E300EFFB7A0070047F80801CEB64014A70048A
:1002F3007F908012EB64024A70047F888008EB646D
:0C030300034A70027F98EF2DFF02033ABE
:10024E00BBB6D3ADCAB9D3C3C7F3D6FABBFA00CE89
:10025E00D2C9FAB2A1C1CB20202020202000D7C5C0
:10026E00BBF0C1CB202020202020202000B5E7C2EB
:10027E00B7B9CAD5CF20202020202000C6E4CBFB62
:10028E00C7F3D6FA2020202020200057694669C1E6
:0A029E00ACBDD3B3C9B9A6202000FF
:03001E00010800D6
:0703A600C2A01203ADD2A0BA
:0803AD007FB47E49DEFEDFFC97
:0103B5002225
:0D03B600007F247E057DD3DDFEDEFCDFFA36
:0103C3002217
:10038200E4FDFC1203A60DBD00010CED64034C70EC
:01039200F278
:010393002247
:10039400E4FDFC1203A60DBD00010CED64014C70DC
:0103A400F266
:0103A5002235
:03002300020016C2
:08001600309804C2980508327D
:100026001203AD120003120382E4FDFF802FE509DF
:1000360090024E93FF602B12035E0509E5096410DA
:100046007006FD7F011202E3E50964207006FD7F5C
:10005600021202E3E509643070D4FD7F031202E365
:1000660080CC438920759850758780758DFA758B7D
:10007600FAD2ACD2AFD28EE4F5091203B6C2A1F51C
:1000860008C3E50894237480948040F5D2A1E4FD6A
:10009600FF802FE50990029993FF602B12035E05FE
:1000A60009E50964107006FD7F011202E3E50964A3
:1000B600207006FD7F021202E3E509643070D4FD6C
:1000C6007F031202E380CCE4F509FDFF1202E32070
:1000D6009234E50990025D93FF606212035E0509A2
:1000E600E50964107006FD7F011202E3E50964204C
:1000F6007006FD7F021202E3E509643070D4FD7FCD
:10010600031202E380CC209336E50990026C93FF3C
:10011600602B12035E0509E50964107006FD7F0178
:100126001202E3E50964207006FD7F021202E3E590
:1001360009643070D4FD7F031202E380CC8037203F
:10014600943AE50990027B93FF602B12035E050942
:10015600E50964107006FD7F011202E3E5096420DB
:100166007006FD7F021202E3E509643070D4FD7F5C
:10017600031202E380CC1203940200D530950302E9
:1001860000CDE50990028A93FF602B12035E0509F4
:10019600E50964107006FD7F011202E3E50964209B
:1001A6007006FD7F021202E3E509643070D4FD7F1C
:0C01B600031202E380CC1203940200D577
:1001CE00020026E493A3F8E493A34003F68001F221
:1001DE0008DFF48029E493A3F85407240CC8C33332
:1001EE00C4540F4420C8834004F456800146F6DF01
:1001FE00E4800B010204081020408090001EE47E73
:10020E00019360BCA3FF543F30E509541FFEE493F5
:10021E00A360010ECF54C025E060A840B8E493A3BC
:10022E00FAE493A3F8E493A3C8C582C8CAC583CAE7
:10023E00F0A3C8C582C8CAC583CADFE9DEE780BE9F
:0100210000DE
:00000001FF
